:100000000C9475010C94AD010C94AD010C94AD01F0
:100010000C94AD010C94AD010C94AD010C94AD01A8
:100020000C94AD010C94AD010C94451C0C94181D5E
:100030000C944F170C94AD010C94AD010C94AD01D0
:100040000C94AD010C94AD010C94AD010C94AD0178
:100050000C94AD010C94E7170C94AD010C94AD0118
:100060000C94AD010C94AD010C94AD010C94AD0158
:100070000C94AD010C94AD010C94AD010C94AD0148
:100080000C94AD010C94AD010C94AD010C94AD0138
:100090000C94AD010C94AD010C94AD010C94AD0128
:1000A0000C94AD010C94AD010C94AD01E000E300A3
:1000B000E200000000002C0000000000E60000004C
:1000C000E70000006500E400E1001D001B000600E1
:1000D000190005001100100036003700380000003C
:1000E0000000E500390004001600070009000A00BE
:1000F0000B000D000E000F0033003400000028003C
:100100002B0014001A000800150017001C0018002E
:100110000C00120013002F003000310035001E00CB
:100120001F002000210022002300240025002600BB
:1001300027002D002E002A00290000003A003B0075
:100140003C003D003E003F004000410042004300B3
:100150004400450028034D0065006C0074006F00EA
:100160006E00540065006300680020004B006500CD
:10017000790062006F0061007200640000001E03DD
:100180005400720069007300740061006E0020006A
:100190004D0065006C0074006F006E0000000403E9
:1001A000090409023B00020100A0FA090400000151
:1001B000030101000921110100012244000705810A
:1001C00003080001090401000103000000092111D6
:1001D00001000122B6000705820320000112010080
:1001E0000200000008EDFE00000001010200010510
:1001F000010902A10185020901A1000509190129CE
:1002000008150025019508750181020501093009CD
:10021000311581257F9502750881060938158125DC
:100220007F950175088106050C0A38021581257F26
:10023000950175088106C0C005010980A1018503EB
:1002400019012AB700150126B70095017510810024
:10025000C0050C0901A101850419012AA00215019C
:1002600026A002950175108100C005010906A101B3
:100270008506050719E029E7150025019508750190
:1002800081020507190029EF1500250195F0750178
:10029000810205081901290595057501910295014D
:1002A00075039101C005010906A101050719E0299F
:1002B000E7150025019508750181029501750881F2
:1002C000010507190029FF150026FF00950675088E
:1002D00081000508190129051500250195057501FD
:1002E0009102950175039101C00011241FBECFEF4B
:1002F000DAE0DEBFCDBF04B603FE18C08091CE02A7
:100300009091CF02A091D002B091D1028730904B52
:10031000A740B04B59F41092CE021092CF02109227
:10032000D0021092D102E0E0F8E3099511E0A0E0DC
:10033000B1E0E6ECFFE302C005900D92A839B107E9
:10034000D9F722E0A8E9B1E001C01D92AE3CB207A6
:10035000E1F70E94DA100C94901F0C9400008111B8
:1003600012C0663080F44E3070F4E42FF0E08EE07E
:10037000689FE00DF11D1124EE0FFF1FE455FF4FA4
:1003800085919491089581E090E008950E94AF01D5
:10039000089581E008950E94C901089581E00895BB
:1003A0000E94C90108950E94D001089508950E94F5
:1003B000D6010895A6E0B0E0E0EEF1E00C94EC1E6A
:1003C00049835A839E8330919F0189819A8131119B
:1003D0001AC03E81332399F0222389F00E947E07C0
:1003E000182F682F89819A810E945A0769817A8122
:1003F000812F0E94810E2696E3E00C94081F0E9434
:100400006C07182FF3CF0E947E0769817A81F1CFA4
:10041000FC01262F40815181628173818481958105
:100420000E94DA010895CF93DF93D82FC92F61E09E
:100430000E9408026D2F7C2F0E94CB01DF91CF918B
:100440000895CF93DF93D82FC92F60E00E94080250
:100450006D2F7C2F0E94D701DF91CF91089581E00D
:1004600008950E942F020895CF93C82F0E942C0652
:100470008C2F0E9431022FEF84E39CE021508040BA
:100480009040E1F700C00000CF91089581E00E9404
:1004900034020E940B18089580E00E9434020E94EA
:1004A0002F1808950F931F93CF93DF938C0161E072
:1004B0000E940802EC01B8010E94D3018823B1F127
:1004C000B801CE010E942115882381F1B801CE0127
:1004D0000E944011882351F1B801CE010E941511EC
:1004E000882321F1F8018581882381F0CA35FCE752
:1004F000DF0739F178F4C130ECE7DE07F9F0C330FB
:10050000FCE7DF07C9F0C115DC4771F0C8010E94A4
:10051000CE010DC0CB35ECE7DE07B1F0CC35DC47C2
:10052000A9F70E94B20BF2CF0E94460280E0DF9151
:10053000CF911F910F9108950E94C40B0E944C020D
:10054000F5CF0E94BC0BE2CF0E94C00BDFCF0E9410
:100550002B170E94CE0208950E94D2020E943017EB
:100560000895089581E008950895CF93DF93D82FDB
:100570000E94B202C82F882319F08D2F0E94B40266
:100580008C2FDF91CF9108950895CF93C82F0E94AB
:10059000B1028C2F0E94B502CF91089580E00E9495
:1005A000C50208950E9467150E94C5020895CF9361
:1005B0000E946715C82F80919A018C1779F0C0931B
:1005C0009A010E94BB1760939B0170939C018093DA
:1005D0009D0190939E018C2F0E94C502CF9108959A
:1005E000ADE0B0E0E6EFF2E00C94ED1E48875987ED
:1005F0006A877B878C879D8791110E94BD0A1F8225
:1006000086E0FE013896DE01119601900D928A95E2
:10061000E1F78D8181110DC029813A814B815C8187
:100620006D817E818F810E94030A2D96E2E00C94F9
:10063000091FCE0101960E9413028111EDCFF5CF63
:10064000FC018481813021F4808191810E94B00776
:100650000895662329F00E94AE120E948413089523
:100660000E940C13FACFCF93C82F882399F08CEFF8
:100670008C0F813A88F48C2F0E940A16882329F067
:100680008C2F0E94AF160E94550B8C2F0E9498163B
:100690000E94550BCF91089580E28C0F883048F46A
:1006A000C77081E001C0880FCA95EAF70E949E0AD0
:1006B000EFCF8BE58C0F833038F42C2F2452330B83
:1006C000C9010E949D15E6CFE8E5EC0FEB3150F42F
:1006D000F0E0EE0FFF1FE95EFE4F808191810E94E6
:1006E000C315D8CF83E38C0F8331A0F661E08C2F44
:1006F0000E942903CFCF882381F19CEF980F913A74
:1007000028F40E94AF160E94550B089590E2980FAE
:10071000983050F4877091E001C0990F8A95EAF7FC
:10072000892F0E94A40AEFCF9BE5980F933028F4FD
:1007300080E090E00E949D15089598E5980F9B3108
:1007400028F480E090E00E94C315089593E3980F89
:10075000933118F460E00E94290308951F93CF930A
:10076000DF93182FEB010E943303209739F4812F78
:100770000E947B03DF91CF911F9108958FE99FE045
:100780000197F1F700C000002197EFCF60E070E023
:10079000893311F460E570E00E94AE030895882368
:1007A00021F00E949E0A0E94550B0895882321F093
:1007B0000E94A40A0E94550B0895A0E0B0E0E3EE69
:1007C000F3E00C94E71E6C01D62FC72FFC011581B6
:1007D000068102950F700E94930AE82E8823F9F093
:1007E000E12E1123E1F08C2F807F803461F080E2D4
:1007F0008D0F8830F0F08C2F807E803221F4D23043
:10080000C0F00023B1F08091A40282FF12C082E008
:100810000E94850B0E94930A91E0E82EE926EC2FB6
:10082000E295EF70C03CB0F5F0E0EE56F04E0C945F
:10083000D71EE12CF4CF0C2F0F70C03110F00295B1
:10084000007F112399F0002359F080E28D0F88304A
:1008500010F0D11107C0802F0E949E0A0E94550BF4
:100860008D2F51C0802F0E94AF0AF8CF8D2F0E948C
:100870007B03002379F080E28D0F883010F0D111D6
:1008800004C0802F0E94A40A03C0802F0E94B50AD2
:100890000E94550BEE2089F00E948F0A80FD0DC04A
:1008A000F60115820E94890A0E94B706C6010E94BD
:1008B000F3050E94890A0E94C706CDB7DEB7E8E0BB
:1008C0000C94031FFC2FFF70FF2EC07FC03219F065
:1008D000F29480EFF822DD2341F0D130D1F11123E1
:1008E00009F444C00023F1F0BBCF8091A40282FD43
:1008F00015C0112359F0FF2029F08F2D0E949E0A68
:100900000E94550B80E00E943303C4CF80E00E9418
:100910007B03FF2009F4BECF8F2DB4CF112369F0E4
:10092000011104C08F2D0E94CF03B4CF013009F014
:10093000B1CF8F2D0E94D50AADCF0111ABCF8F2D36
:100940000E94D6038F2D0E94E10A8F2D0E94C40AB7
:10095000A1CF112321F0063008F09CCFE3CF053062
:1009600008F098CF8F2D0E94D60394CF0023D1F3A7
:10097000D93349F42FEF87EE93E021508040904027
:10098000E1F700C000008D2F0E947B0383CF8C2FE6
:10099000869586958370882369F0813009F07ACF37
:1009A0008D2F9C2F9370111102C080E090E00E9467
:1009B000C31570CF8D2F9C2F9370111102C080E052
:1009C00090E00E949D1566CF612F8D2F0E94290314
:1009D00061CF8C2F8370811139C0111129C04D2F27
:1009E000429546954770440F440F2D2F2F7030E0ED
:1009F000042E02C0220F331F0A94E2F780E090E039
:100A0000D4FF09C08FE090E002C0880F991F4A957B
:100A1000E2F780959095C695C695C370822B932B6F
:100A2000C23071F0C33079F0C13039F00E948706CE
:100A30000E9467150E94C5022DCF0E947E06F8CF46
:100A40000E949006F5CF0E947B06F2CF112361F140
:100A5000C0FFEECF4D2F429546954770440F440F8F
:100A60002D2F2F7030E0042E02C0220F331F0A9466
:100A7000E2F780E090E0D4FF09C08FE090E002C090
:100A8000880F991F4A95E2F780959095C695C6956F
:100A9000C370822B932BC23069F0C33071F0C13028
:100AA00031F00E94F206C4CF823010F2D3CF0E9400
:100AB000E906BECF0E94FB06BBCF0E949F06B8CFBF
:100AC000CF70112339F08C2F0E94B7068D2F0E9412
:100AD000CF03AECF8D2F0E94D6038C2F0E94C70666
:100AE000A7CFD23F31F170F4D03FB9F0D13FB1F18F
:100AF000112309F44EC0002309F448C08D2F0E9431
:100B0000330396CFD33FE1F0D43F21F11111F3CF5E
:100B100001114DC08C2F8F71E1CF112341F00530B1
:100B200008F086CF8C2F8F710E94D90681CF0530B7
:100B3000F7CF8C2F8F711111D1CF0E94B70678CFCC
:100B4000112329F08C2F8F710E94AB0671CF0E9468
:100B5000A6066ECF8091A40282FD06C08C2F8F71F5
:100B6000112309F4BBCFE9CF112331F063E08C2FBF
:100B70008F710E94670B5CCF81E00E94850B023071
:100B800008F456CF82E00E94850B52CF8C2F8F71D4
:100B9000D4CF002309F4BECFD93349F4EFEFF7EEF9
:100BA00023E0E150F0402040E1F700C000008D2F2D
:100BB0000E947B033DCF0F931F93CF93DF93EC01F4
:100BC000688179818D810E94BD078C010E94040794
:100BD0000E947A06B801CE010E94DD03DF91CF9119
:100BE0001F910F910895CF93DF93EC018C8188239F
:100BF00099F0CE010E945202811111C00E94930A05
:100C0000882351F08D81882339F08091A40282FFDE
:100C100003C082E00E94850BDF91CF910895CE0141
:100C20000E94DB05CE010E942102F6CF80E090E019
:100C30000E949D1580E090E00E94C3150E94BD0AAD
:100C40000E94550B0E94A1130E94841308950E94D4
:100C5000C6160E94160608950E94AC0A0E94270636
:100C60000895282F92959F70963091F060F4925FCE
:100C70009F70923030F481E0203F79F030F4283ECC
:100C800030F080E008959A5FF3CF243FD1F70895C4
:100C900081E0283EE0F3213FF9CF0895FC018481F3
:100CA000882339F0808191810E94B0070E9431062B
:100CB000089580E00895A6E0B0E0E1E6F6E00C9447
:100CC000ED1E2696E2E00C94091FA7E0B0E0EBE6EB
:100CD000F6E00C94ED1E2796E2E00C94091F0895AF
:100CE0000E946F0608950E9470069093CF01809332
:100CF000CE01089508950E94730608952091CE01B3
:100D00003091CF01822B932B0E947306089520917E
:100D1000CE013091CF01822393230E947306089560
:100D20002091CE013091CF01822793270E94730634
:100D300008950E946F0608950E94990608950E94E2
:100D40009C069093CD018093CC01089580E090E0C3
:100D50000E949F06089521E030E0A90102C0440FDF
:100D6000551F8A95E2F7CA010E949F06089521E067
:100D700030E002C0220F331F8A95E2F78091CC0148
:100D80009091CD01822B932B0E949F06089521E024
:100D900030E002C0220F331F8A95E2F7209530958C
:100DA0008091CC019091CD01822393230E949F06D4
:100DB000089521E030E002C0220F331F8A95E2F748
:100DC0008091CC019091CD01822793270E949F06AC
:100DD00008952091CC013091CD01822B932B0E945C
:100DE0009F0608952091CC013091CD018223932359
:100DF0000E949F0608952091CC013091CD01822759
:100E000093270E949F06089508959B01677091E0C3
:100E100001C0990F6A95EAF763E0369527956A95C0
:100E2000E1F7220F331F220F331FFA01E20FF31FE6
:100E300040E050E0682F70E08191DF0111979B0145
:100E4000042E02C0369527950A94E2F72170219569
:100E50002827292328272C934F5F5F4F44305105C3
:100E600059F708959C01982F977083E03695279540
:100E70008A95E1F7220F331F220F331FFB01E20F88
:100E8000F31F40E050E080E0219130E0092E02C0E5
:100E9000369527950A94E2F721703327042E01C076
:100EA000220F0A94EAF7822B4F5F5F4F44305105BF
:100EB00059F70895282F862F963068F42E3058F46D
:100EC000622F70E02EE0929F600D711D112440EAA8
:100ED00051E00E9405070895292F963068F48E305E
:100EE00058F490E060EA71E03EE0239F800D911D90
:100EF00011240E943207089580E00895A0E0B0E038
:100F0000E4E8F7E00C94E61E8C01E090CC01F09050
:100F1000CD018091CE019091CF01E82AF92ACFE04E
:100F2000D0E0CC24C394D12CC6010C2E02C0880F73
:100F3000991F0A94E2F78E219F21892B49F421976A
:100F400098F7B12C8B2DCDB7DEB7E9E00C94021FDA
:100F5000BC2EB8018C2F0E948D0E019781F3F2CF29
:100F6000CF93DF93D82FC92F0E947E076D2F7C2F40
:100F70000E948D0EDF91CF9108951F93CF93DF9341
:100F8000162FD72F90919F01992341F0862F972FED
:100F90000E94B007DF91CF911F910895882381F0BF
:100FA000862F972F0E947E07C82F682F812F9D2F95
:100FB0000E945A07612F7D2F8C2F0E948D0EEACF41
:100FC000862F972F0E946C07C82FF4CF0F931F9383
:100FD000CF93E091D001C7E08091D1018E1304C07E
:100FE000CF911F910F9108950E2F10E0CE9FF00129
:100FF0001124EE52FE4F2081318142815381648160
:10100000758186810E946506F8013196E770E4CF0C
:1010100020910A0230910B0240910C0250910D0276
:1010200060910E0270910F02809110020E9465067D
:10103000089580911002803178F480910F02882306
:1010400059F0E091D0012091D10130910B024091F3
:101050000A0257E02E1301C008956E2F70E05E9FC4
:10106000F0011124DF01AE52BE4F14968C911497FB
:10107000882361F111968C911197831327C08C916D
:10108000841324C015968C91159781111FC0129658
:101090008D919C91A0910C02B0910D028A1B9B0B2B
:1010A000883C910598F4809110028F708061809344
:1010B0001002E852FE4F80818F70806180838AE049
:1010C00092E00E94F3050E94E6070895FB01319625
:1010D000E770C0CFE091D0019091D10127E0E913F2
:1010E00002C080E00895AE2FB0E02E9FF0011124E1
:1010F000EE52FE4F3181361306C03081381303C0E3
:101100003581341304C0FD013196E770E8CF81E0EA
:1011100008958F929F92AF92BF92DF92EF92FF92CB
:101120000F931F93CF93DF93CDB7DEB72D970FB6F5
:10113000F894DEBF0FBECDBF8C0186E0F801DE0162
:10114000189601900D928A95E1F7F801E080F580FC
:10115000A280B38084819AE0892E92E0992E9091AA
:101160000E0291111BC0882309F4FCC0FF2009F472
:101170003DC1C8010E944E06882309F437C187E0AB
:10118000F801D40101900D928A95E1F7C4010E9403
:1011900020030E9419080E940808E4C0D0900F02A2
:1011A00020910C0230910D02A501421B530BDD2052
:1011B00009F4DBC0483C510508F0A6C0882309F4B7
:1011C000D1C090910B02918080911002803108F083
:1011D0006BC0991228C090910A029E1124C0F11090
:1011E0005DC08F708061809310020E9408088AE0C1
:1011F00092E00E94F30580911002F8018683F12CA1
:101200008F2D2D960FB6F894DEBF0FBECDBFDF91A8
:10121000CF911F910F91FF90EF90DF90BF90AF9013
:101220009F908F900895F11039C040E0692D8E2D68
:101230000E946A0840E0692D8E2D0E946A08F82EEF
:101240008111DDCF888599850E94B007292F2295CD
:101250002F70903450F49F70223080F0992399F0D1
:10126000F8019681903178F4CBCF2A5F2F7022302D
:1012700078F0C8010E94F305FD2CC2CF992319F024
:10128000882309F4BDCF805E883008F4B9CFF1CF50
:10129000803F08F4B5CF815F8230F7CF8091100294
:1012A000816080931002ABCF991207C090910A021F
:1012B0009E1103C0FF2009F479C0C8010E944E06A8
:1012C000882309F493C0FF2009F490C08091100294
:1012D000803288F020910A0230910B023A832983F0
:1012E000BC82AB8290910E029D831E828F83CE01C1
:1012F00001960E94F30587E0F801AAE0B2E00190B0
:101300000D928A95E1F745CF909110029031A0F4AB
:10131000488559856A857B858C859D850E945B06FD
:101320008AE092E00E94F30587E0F40111928A9529
:10133000E9F70E94080863CF8823A1F020910B02EF
:1013400081812813BACF80910A028E11B6CFF11095
:10135000B4CF9683C8010E94F30587E0F40111928F
:101360008A95E9F7FF24F3944BCF483C510508F0E8
:1013700041C08823B9F3FF20C9F190910B0281810C
:1013800098132AC080910A028E1126C08091100203
:1013900080FD19C08031B8F08683807F803F39F0AE
:1013A0008681982F907F905F8F70892B8683C801EC
:1013B0000E94F30587E0F801AAE0B2E001900D92E7
:1013C0008A95E1F7E8CE87E0F801AAE0B2E0019063
:1013D0000D928A95E1F7C6CFC8010E944E06811191
:1013E0008ACF80911002816080931002C8010E9410
:1013F000F305B8CF488559856A857B858C859D85A1
:101400000E945B0691CFAEE0B0E0E9E0FAE00C9418
:10141000EC1E288739874A875B876C877D878E8794
:10142000CE0108960E9489088823B1F06C85662356
:1014300041F0288539854A855B857D858E850E94AA
:10144000650617E08091D0019091D10189133EC0CB
:101450002E96E3E00C94081F87E0FE013896DE012B
:10146000119601900D928A95E1F72091D10140915A
:10147000D0018C85882329F330E0C901019687705B
:10148000992750E08417950799F097E0929FD00133
:10149000939FB00D1124AE52BE4FFE0131960190C4
:1014A0000D929A95E1F78093D1010E94E607C9CF8A
:1014B0000E942C061092D1011092D00187E0EAE040
:1014C000F2E0DF011D928A95E9F7BBCF189FC001BA
:1014D00011248E529E4F0E948908882309F4B8CFA8
:1014E000E091D0011E9FF0011124EE52FE4F2081A9
:1014F0003181428153816481758186810E946506B4
:101500008091D00190E00196877099278093D00157
:1015100099CF809139028695869586950895809118
:1015200039028770089590913902977081E0911186
:1015300001C080E008958091650208959091650250
:10154000982B909365020895982F9095809165024D
:101550008923809365020895109265020895909101
:101560006402982B909364020895982F909580912F
:10157000640289238093640208951092640208959E
:1015800008950E94C00A089590913A02292F2823B5
:10159000222331F08095892380933A020E94C10A68
:1015A000089508950E94D10A089590913B02292F31
:1015B0002823281729F0982B90933B020E94D20AE7
:1015C000089590913B02292F2823222331F0809502
:1015D000892380933B020E94D20A089580913B02A6
:1015E000882329F010923B0280E00E94D20A0895DD
:1015F000CF93DF93C091650280916402C82BD09194
:101600003B02DD2331F00E94E91581110E94EE0AB0
:10161000CD2B8C2FDF91CF910895CF93DF93C09185
:101620000201D09103010E94F80A8883C09102014F
:10163000D091030148E050E061E372E0CE010E94E6
:10164000281F892B59F088E0FE01A1E3B2E0019048
:101650000D928A95E1F7CE010E947415DF91CF912A
:101660000895CF93DF93C0910001D09101010E94B2
:10167000F80A8983C0910001D091010140E250E055
:1016800061E172E0CE010E94281F892B59F080E2AF
:10169000FE01A1E1B2E001900D928A95E1F7CE0141
:1016A0000E947F15DF91CF910895809116018823C4
:1016B00039F08091A30287FF03C00E94310B089587
:1016C0000E940D0B089508950E94630B0895909158
:1016D000A40292FF11C098E0899F90011124622B0F
:1016E000609339020E94B7068091390286958695EB
:1016F00086950E94640B08950E94B7060895109283
:10170000390280E00E94640B08959091390280951F
:10171000892380933902282F277021110DC0891742
:1017200059F09091A40292FF07C086958695869500
:101730000E94C7060E947F0B08959091A40292FB1D
:10174000222720F9281769F080FB92F99093A402D0
:101750008091A3029091A4020E94E50B82E00E9476
:10176000850B08958091A40282FB882780F991E07F
:1017700089270E949D0B089581E00E949D0B08958A
:1017800080E00E949D0B08956FEF7FEF80E090E076
:101790000E947A1F089580E090E00E94461F9C01FD
:1017A00081E0253E3E4F09F080E0089582E090E020
:1017B0000E943E1F089583E090E00E943E1F08951E
:1017C00084E090E00E94461F0895BC0184E090E010
:1017D0000E947A1F0895AB01BC018FE090E00E9447
:1017E0006E1F0895AB01BC0183E190E00E946E1F63
:1017F000089560E070E0CB010E94F20B089560E074
:1018000070E0CB010E94EB0B0E94F90B0895A8E059
:10181000B0E0EDE0FCE00C94ED1E65EE7EEF80E0C4
:1018200090E00E947A1F60E082E090E00E945C1FDE
:1018300081E090E09093CF018093CE0161E083E05E
:1018400090E00E945C1F60E074E184E090E00E9400
:101850007A1F60E086E090E00E945C1F60E087E015
:1018600090E00E945C1F40E050E0BA0188E090E008
:101870000E946E1F60E083E290E00E945C1F60E0C7
:101880008CE090E00E945C1F60E08DE090E00E94A0
:101890005C1F19821A821B821C821D821E821F827B
:1018A000188648E050E067E170E0CE0101960E94A2
:1018B0004C1F40E050E0BA018FE190E00E946E1FA3
:1018C0000E94FF0B2896E2E00C94091F0E94070C6F
:1018D0000895682F8EE090E00E945C1F0895A6E0B6
:1018E000B0E0E5E7FCE00C94EB1E0E94AF178C0122
:1018F00080916602909167028017910779F01982B2
:101900001A820E94AF17BC0149815A8180E090E0A1
:101910000E94F00210936702009366022696E4E0AC
:101920000C94071F0E94BB17609378027093790292
:1019300080937A0290937B02609374027093750295
:1019400080937602909377020895089508950E94F7
:10195000A50C089508950E94AA0C089585E89FE0BB
:101960000E94EF100E94A60C0E94A70C089581E02F
:1019700008950E94B70C08950E94B70C0895089529
:1019800008950E94BF0C0E94C00C08950E94CB0BCA
:10199000811102C00E94660C0E94D60B80937C02CB
:1019A0000E94E00B9093A4028093A3020E94121164
:1019B0000E94DB0B90E00E947B068091CC0190910D
:1019C000CD010E949C0608950E94A6170E94421015
:1019D0000E94C60C0E94C4020E94AB0C0895A6E0AF
:1019E000B0E0E5EFFCE00C94E11E0E94B90C81111F
:1019F0000AC00E946F0C0E94C2130E94D702269652
:101A0000EEE00C94FD1E0E94581028E6822E22E083
:101A1000922E640110E0F601E190F1906F01812FA8
:101A20000E948F0F1F5F163009F44DC0E816F906AB
:101A300091F380917C0281FD0E94980F0E94BC0C62
:101A4000782EF12C662463948F2D0E948F0F8C01C9
:101A5000F401A190B1904F018A159B0569F1A82668
:101A6000B926E12CCC24C394D12CC5018C219D2115
:101A7000892BC1F07720B1F0E982FA820E94AF177A
:101A80009C838B836D8221E0C8018C219D21892B51
:101A900009F420E049815A816B817C818D81922FEC
:101AA0000E94F002E394CC0CDD1CFEE0EF12DDCFCF
:101AB000F401329711830083F39486E0F812C4CFC7
:101AC0000E94920C98CFE816F90609F0B2CF91CF98
:101AD0001F93CF93DF930E94920EEC01811522E5B4
:101AE000920708F053C0811540E5940708F0DDC067
:101AF000803E9105F8F48D3C910508F0AEC0883A1F
:101B0000910580F4853A910508F099C081309105DE
:101B100021F00497813A910550F4CE01DF91CF91E5
:101B20001F910895885A91094B9708F48BC0C0E023
:101B3000D0E0F3CF811550E49507F8F4C11580E2A9
:101B4000D80708F0CBC0C83ED10538F3CE019A952E
:101B500081159F4160F78D2F0E94360F182FCE01FF
:101B600099270E94920E212F30E0322F2227E9017F
:101B7000CC27DF71C82BD92BD0CF99270E94920E8A
:101B8000CC27DF70C82BD92BD06AC7CF803842E56D
:101B90009407C8F5803652E5950708F067C0C03451
:101BA00082E5D807B0F08C2F86958695877020E265
:101BB000829FC0011124C37021E030E0A90102C05E
:101BC000440F551FCA95E2F7EA01C82BD92BDC68F0
:101BD000A4CFC03252E5D50708F041C08C2F8695BE
:101BE000869520E2829FC0011124C37021E030E07D
:101BF000A90102C0440F551FCA95E2F7EA01C82B9C
:101C0000D92BDD688ACF803C52E5950760F48F714F
:101C1000C03AD24508F03FC090E0982F8827EC01E9
:101C2000C46FD06A7ACF805C9245809708F07FCFEE
:101C3000DC2FCC27CC27DF71C06FD06A6ECFA49782
:101C4000D0646BCFC85AD0E0CC0FDD1FC35BDE4F32
:101C50000990D881C02DD46460CFD0655ECFCF719C
:101C6000D0E0DC2FCC27C16FD06A57CF8695869500
:101C7000877020E2829FC0011124C37021E030E010
:101C8000A90102C0440F551FCA95E2F7EA01C82B0B
:101C9000D92BDA6842CF0E94360FC82FD0E0DC2F54
:101CA000CC27CC27DF71D06238CF8F710E94360FDE
:101CB00065E0D695C7956A95E1F7CF70D0E0DC2F47
:101CC000CC27282F30E084FF05C054E0220F331FBB
:101CD0005A95E1F7C22BD32BD0691FCF8D2F8F716F
:101CE0000E94360F182FCE0199270E94920E212FA5
:101CF00030E0322F222722273F71282B392BE90190
:101D0000D2CF462F672F763028F44E3018F40E9439
:101D1000C601089580E090E008950E94810E0E941F
:101D2000680D0895803E9105D1F1C8F48133910585
:101D300009F47FC048F48932910509F46FC08A32F2
:101D4000910509F47DC0089589339105E1F0823849
:101D50009105C9F08533910509F45BC00895843E6F
:101D60009105D1F148F4823E910531F1833E910510
:101D700041F181EE90E00895863E9105C1F1873EE4
:101D80009105E1F108952091A3022370211165C00E
:101D90002091A40223FF14C089E290E008952091CD
:101DA000A30220FD43C03091A40230FF09C024FFEC
:101DB0004EC080E090E008952091A30222FDF7CF6D
:101DC00008952091A30222FD45C03091A40230FD68
:101DD00044C024FFF5CFEDCF2091A40221FFF0CF26
:101DE0008091A30284FDE5CF87EE90E008952091D5
:101DF000A30223FFE5CF24FDDCCFF6CF2091A30281
:101E000023FD2EC03091A40231FFE3CF84EE90E099
:101E100008952091A30225FFD3CFBECF2091A30226
:101E200025FD21C02091A40223FFCACF89E390E0C1
:101E300008952091A30226FFC3CF8AE290E008957F
:101E40002091A30226FFBCCF81E390E0089583EEAA
:101E500090E0089582EE90E0089580EE90E008957D
:101E600086EE90E0089585E390E0AACF9091A302DA
:101E700092FF10C041E0282F2471243009F040E087
:101E800031E0282F2871283009F030E0431711F095
:101E90002CE0822793FF10C041E0282F24712431C9
:101EA00009F040E031E0282F2871283109F030E0B6
:101EB000431711F02CE082273091A40230FF10C0AC
:101EC00051E0282F2171213009F050E041E0282F06
:101ED0002871283009F040E0541711F029E08227DA
:101EE00031FF10C041E0282F2171213109F040E07D
:101EF00031E0282F2871283109F030E0431711F024
:101F000029E0822794FD877E089580E00895089552
:101F10000E94870F089508950E948B0F0895E82F5F
:101F2000F0E0EE0FFF1FEF54FD4F80819181089587
:101F3000089580EA8A95F1F7089500C008950E94F7
:101F4000990F0895F894E82FE295EF70F0E041A121
:101F50008F7021E030E0B90102C0660F771F8A95CB
:101F6000E2F7CB01962F9095942391A392A1892B10
:101F700082A3789408950F931F93CF93DF93C1E9C1
:101F8000D1E089918F3F11F00E94A20F81E0C73903
:101F9000D807B9F7C3E8D1E001E911E089918F3F93
:101FA00011F00E94A20F0C171D07C1F7DF91CF910E
:101FB0001F910F910895A0E0B0E0E1EEFFE00C94D6
:101FC000E61EEC01B62E062F10E0C8018F569E4F7C
:101FD0007C01FC0180818F3F09F44FC0F894E82F09
:101FE000E295EF70F0E091A18F7021E030E001C048
:101FF000220F8A95EAF7892F822B81A382A120954F
:10200000282322A378940E949D0FE3E8F1E041E0A9
:1020100050E0C12CD12C21912F3F89F0A22FA29505
:10202000AF70A05EB0E08C9190E02F7002C09595EB
:1020300087952A95E2F781709A01882311F020E0B4
:1020400030E0C22AD32A440F551F81E0E139F80756
:1020500011F7F70180818F3F11F00E94A20F61E01C
:10206000C114D10409F460E08B2D0E949F0F000F72
:10207000111FC00FD11FD982C882CDB7DEB7E9E0EA
:102080000C94021F0E94BB0F8CE0E1EBF2E0DF0139
:10209000982F1D929A95E9F7E5EAF2E0DF011D928B
:1020A0008A95E9F786E00E9495100E94880F0895AE
:1020B000ACE0B0E0EEE5F0E10C94EA1EFE013196F2
:1020C0008CE0DF011D928A95E9F710E0FE2E0F2FBC
:1020D000612F8F2D902F0E94DB0F1F5F1630C1F7ED
:1020E0004CE050E06F2D702F85EA92E00E94281F8F
:1020F00021E0892B81F420E046E061EB72E085EA83
:1021000092E00E949610182F0E948C0F812F2C961F
:10211000E5E00C94061F8CE0EF2DF02FA5EAB2E06D
:1021200001900D928A95E1F7E7CF0895A0E0B0E025
:10213000ECE9F0E10C94E71ED82EE92EF62ED72F0D
:10214000042FC22F222379F081E080937F020E9426
:10215000AF1790937E0280937D0280E0CDB7DEB70B
:10216000E8E00C94031FC0907F02CC20B1F3809173
:102170007D0290917E020E94D817059770F310E0BF
:10218000000F111FA8016D2D7E2D8F2D9D2F0E94F8
:10219000281F892B41F0A8016D2D7E2D8F2D9D2F9D
:1021A0000E94351FCC2D10927F028C2FD7CF0E941A
:1021B000EF0C08950E9448170E9483190E94AE0CEC
:1021C0000E949D190E94E40C0E94AA190E94AF1956
:1021D0000E94D7100E94C9190E94C10CF7CF90939A
:1021E00099018093980108950E94C40B089580E09E
:1021F0000E948F0F817008950E9458102FEF86E77C
:1022000091E0215080409040E1F700C000000E9422
:1022100058100E94F710882321F00E94F4100E94A9
:102220000B1808950E94FC100895CF93DF93EB01E3
:1022300086319C4719F50E949B0A9D819923A1F044
:102240008A7A91E0811101C090E090938002882306
:1022500049F085E30E9498160E94550B80E0DF91BB
:10226000CF91089589E2F6CF80918002882321F0F2
:1022700085E30E94AF16F0CF89E2FBCF81E0EFCF7C
:10228000CF93DF93EC01FB018581882309F4D2C051
:102290009E0130572332310508F0B2C00E94E00B96
:1022A0009093A4028093A302FE01E150F047E23232
:1022B000F10520F4E256F04E0C94D71E8091A30253
:1022C00081608093A30293C08091A4028860809370
:1022D000A4028DC08091A3028260F3CF8091A302FB
:1022E0008460EFCF8091A3028860EBCF8091A4023D
:1022F0008160EDCF8091A4028260E9CF8091A3023A
:102300008061DFCF8091A3028062DBCF8091A30246
:102310008064D7CF0E942C068091A3028068D1CF21
:102320008091A3028C60CDCF8091A4028360CFCF37
:102330008091A3028E7FC5CF8091A402877FC7CFF3
:102340008091A3028D7FBDCF8091A3028B7FB9CFF7
:102350008091A302877FB5CF8091A4028E7FB7CFF3
:102360008091A4028D7FB3CF8091A3028F7EA9CFED
:102370008091A3028F7DA5CF8091A3028F7BA1CFF7
:102380000E942C068091A3028F779BCF8091A3029D
:10239000837F97CF8091A4028C7F99CF8091A302F5
:1023A00082FB992790F921E0922790FB82F990FB1C
:1023B00083F987CF8091A402982F909591708E7F9A
:1023C000892B90FB81F983CF9091A302892F8F7B7A
:1023D00096FF806476CF0E942C069091A302892FED
:1023E00097FB87F980586DCF81E00E94690C80913E
:1023F000A3029091A4020E94E50B0E942C0680E0AB
:10240000DF91CF91089580E0F0CF9091A302892FC2
:102410008F7E94FF806155CF9091A302892F8E7F8C
:1024200090FF81604ECF9091A402892F877F93FF08
:1024300088604DCF81E0E4CF282F35EB2303C00126
:10244000112497FF04C080589109892F089580585E
:102450009F4FFBCF8091870280FF0DC060910901E3
:1024600070E0660F771F60387105C0F56115710562
:10247000B9F1862F089581FF07C06091090184E0BA
:10248000689FB0011124EFCF82FF04C06091090161
:1024900088E0F6CF809186028823E9F090910801C8
:1024A0006091090170E0891730F093E0660F771FA3
:1024B0009A95E1F7D8CF869F9001879F300D112420
:1024C00083E0220F331F8A95E1F7692F70E0C9017D
:1024D0000E94C31EC8CF68E070E0CBCF8FE708959D
:1024E00081E008958091870280FF0CC06091050112
:1024F00070E075956795759567956115710561F142
:10250000862F089581FF06C06091050170E07595E2
:102510006795F3CF6091050170E082FD15C02091B1
:1025200085022223B1F0909104016091050170E0D1
:10253000291750F4269FA001279F500D1124692FC1
:1025400070E0CA010E94C31E60387105B0F28FE7C7
:10255000089561E070E0D4CF81E0089590918A02FF
:1025600020918B02922B20918D02922B20918C0234
:10257000922B992331F098E09093860291E090930A
:1025800085028D3C31F40E942A12819580938B0242
:102590000895E2E3E80FE231B0F5F0E0E054F04EE8
:1025A0000C94D71E0E942A12F1CF0E942A12819504
:1025B00080938A0208950E942A12FACF0E94721212
:1025C00080938C0208950E9472128195F9CF0E9427
:1025D0007212819580938D0208950E947212FACF33
:1025E000815D990B21E030E001C0220F8A95EAF766
:1025F00080918902822B80938902089580918702BD
:102600008160809387020895809187028260F9CF6C
:10261000809187028460F5CF40918A028D3C59F405
:1026200080918B0287FF0DC010928B02442359F4D6
:102630001092860208C08E3C81F480918B0218169D
:102640009CF3442381F080918C0290918D02892B20
:10265000811159C01092850208958F3C41F447FFC3
:10266000F0CF10928A0280918B028823E0CF803DC8
:1026700019F41416B4F3E5CF90918C02893D29F436
:102680001916FCF610928C02DCCF8A3D19F497FFE4
:10269000D8CFF8CF90918D028B3D29F497FFD1CF01
:1026A00010928D02CECF8C3D19F41916CCF3C9CF00
:1026B0009FE2980F983090F4815D990B21E030E013
:1026C000B90102C0660F771F8A95E2F7CB018095AA
:1026D00090918902892380938902B3CF8D3D31F493
:1026E000809187028E7F80938702ABCF8E3D21F44D
:1026F000809187028D7FF7CF8F3D09F0A2CF809127
:1027000087028B7FF0CF08950E94AF1720918A0235
:1027100030918B02232B222321F08093830290930C
:10272000840220918C0230918D02232B222321F0F0
:10273000809381029093820288E892E00E948E1535
:10274000089586E0E8E8F2E0DF011D928A95E9F756
:102750001092860210928502109287020895FC0161
:10276000828181110DC0838181110AC08481811110
:1027700007C081E09581911101C080E081700895CA
:1027800081E0FCCFA6E0B0E0E8ECF3E10C94EA1EB7
:1027900086E0E8E8F2E09E012F5F3F4FD90101900B
:1027A0000D928A95E1F710928A0210928B02109294
:1027B0008C0210928D028B819C81892B8901882348
:1027C00091F080918302909184020E94D8179C011D
:1027D000809186028823C9F140910A0150E0421796
:1027E000530708F43FC08D819E81892B882399F07F
:1027F00080918102909182020E94D8179C01809161
:102800008502882309F467C04091060150E0421711
:10281000530708F46EC0B80188E892E00E94E01601
:10282000811105C088E892E00E94AF1381110E94D7
:10283000841386E0F801A8E8B2E001900D928A9531
:10284000E1F72696E5E00C94061F40910B019AE013
:10285000499FA00111244217530728F68F5F8093E8
:10286000860202C08F3FD1F7FB80FF2059F00E9403
:102870002A1291E01F140CF09FEF899F802D1124E4
:1028800080938A02FC80FF2059F00E942A1291E076
:102890001F140CF09FEF899F802D112480938B02D1
:1028A00080918A02882309F49ECFF0908B02FF204A
:1028B00009F499CF0E941C12811101C081E080931C
:1028C0008A028F2D0E941C12882319F080938B029C
:1028D0008ACF81E0FBCF409107019AE0499FA00198
:1028E00011244217530708F096CF8F5F809385021B
:1028F00002C08F3FD1F7FD80FF2059F00E94721275
:1029000091E01F140CF09FEF899F802D112480937C
:102910008C02FE80FF2059F00E94721291E01F1479
:102920000CF09FEF899F802D112480938D02809160
:102930008C02882309F46FCFF0908D02FF2009F4F8
:102940006ACF0E941C12811101C081E080938C0229
:102950008F2D0E941C12882319F080938D025BCF6B
:1029600081E0FBCF0F931F93CF93DF93C42FD22F20
:10297000FC0185818823C9F0409390020E94AF1723
:1029800090938F0280938E0280E28C0F883040F407
:10299000C77081E001C0880FCA95EAF70E94CF0393
:1029A000DF91CF911F910F91089510919002141310
:1029B0003CC080918E0290918F020E94D817883C73
:1029C000910598F5C0E2CD0F1D1741F180E2810F0E
:1029D000883040F4177081E001C0880F1A95EAF73B
:1029E0000E94D603C83020F0802F0E94C603D8CFA3
:1029F00091E08D2F877001C0990F8A95EAF7892F92
:102A00000E94CF03802F0E94C603D77081E001C0CF
:102A1000880FDA95EAF70E94D603C2CF802F0E9472
:102A2000C603C83008F0BCCFF0CF80E28C0F8830EE
:102A300008F0B6CFC77081E001C0880FCA95EAF7E9
:102A4000EACF0F93FC01CB01E851FC47E730F105D9
:102A500090F5EE52F04E0C94D71E06E221EE41EEB8
:102A60006AE17CE70E94B21480E00F91089507E2CA
:102A700025EE45EE6BE17CE7F5CF06E221EE40EE78
:102A800068E17CE7EFCF07E225EE44EE69E17CE701
:102A9000E9CF06E221EE42EE6CE17CE7E3CF07E20C
:102AA00025EE46EE6DE17CE7DDCF08E221E045EE64
:102AB0006EE17CE7D7CFFB018581811110929002F6
:102AC00081E0D3CF90939602809395020895E09190
:102AD0009502F0919602309729F00190F081E02D57
:102AE0000995089580E00895E0919502F09196028D
:102AF000309721F00280F381E02D09950895DC01E3
:102B0000E0919502F0919602309739F086E08C932F
:102B10000480F581E02DCD0109950895DC01E09157
:102B20009502F0919602309739F082E08C930680FE
:102B3000F781E02DCD0109950895A3E0B0E0E3EA27
:102B4000F5E10C94ED1E9C0180919302909194020A
:102B500082179307A1F03093940220939302E0919F
:102B60009502F0919602309751F083E089833B8380
:102B70002A830084F185E02DCE01019609952396E4
:102B8000E2E00C94091FA3E0B0E0E9ECF5E10C945D
:102B9000ED1E9C0180919102909192028217930701
:102BA000A1F03093920220939102E0919502F0916E
:102BB0009602309751F084E089833B832A83008416
:102BC000F185E02DCE01019609952396E2E00C9463
:102BD000091F20910201309103012E5F3F4F809128
:102BE00016018823A9F08091A30287FF11C02091CC
:102BF0000001309101012E5F3F4F9DE180E0F9011E
:102C000040812F5F3F4F41118F5F9150C0F7089572
:102C100095E0F4CF882321F190911601992311F1C9
:102C20009091A30297FF1EC0982F96959695969522
:102C3000803FB0F4E0910001F0910101E90FF11D36
:102C4000228130E0877041E050E0BA0102C0660F97
:102C5000771F8A95E2F72623372381E0232B91F40F
:102C600080E008952091020130910301F90132962C
:102C7000285F3F4F9191981721F0E217F307D1F7A2
:102C8000EFCF81E008959C01FC0132968FEF90E038
:102C90004191461751F08F3F19F4411101C0892F1E
:102CA0009F5F9630A9F78F3F09F40895280F311DD3
:102CB00087FD3A95F901628308959C01FC013296E3
:102CC000285F3F4F8191861303C0DF0111971C924B
:102CD000E217F307B9F70895FC01862F86958695CC
:102CE0008695603F60F4E80FF11D677021E030E0E9
:102CF00001C0220F6A95EAF78281822B82830895B0
:102D0000FC01862F869586958695603F80F4E80FB6
:102D1000F11D677081E090E09C0102C0220F331F1B
:102D20006A95E2F7B901609582816823628308950C
:102D3000682F80911601882359F08091A30287FFA4
:102D400007C080910001909101010E946C160895C6
:102D500080910201909103010E9443160895682F0B
:102D600080911601882359F08091A30287FF07C044
:102D700080910001909101010E9480160895809138
:102D80000201909103010E945D1608958091160141
:102D9000882379F08091A30287FF0BC0E0910001A6
:102DA000F091010132968EE1DF011D928A95E9F7DB
:102DB0000895E0910201F0910301329686E0F4CF8C
:102DC000DC01FB0111969C9111978181981322C01F
:102DD00012968C911297882319F0928189131AC048
:102DE00013968C911397882319F09381891312C03D
:102DF00015968C911597882319F0958189130AC02F
:102E000014969C91992321F081E02481291303C019
:102E100080E001C081E08170089508950E940D173F
:102E200008958F5F809397020E940E17089583E0A4
:102E3000809397020E940E1708950E94111708951B
:102E400081E0809397020E940E1708950E94201738
:102E50000895089508950E942A17089508950895E1
:102E60000E9429170895CF930E942E170E94581090
:102E70000E942F17C0E08C2F0E948F0F892B31F4F6
:102E8000CF5FC630C1F780E0CF91089581E0FCCFDD
:102E900085B7806885BF85B7806885BF08951F9214
:102EA0001FB61F9211248F939F93AF93BF9380916E
:102EB0009802811113C08091BD029091BE02A09131
:102EC000BF02B091C0024196A11DB11D8093BD0209
:102ED0009093BE02A093BF02B093C002BF91AF9186
:102EE0009F918F911F901FBE1F9018958091C502D2
:102EF000843031F10E94A7021092980288E190E09C
:102F000020E40FB6F894A895809360000FBE20933C
:102F1000600083B7817F846083BF83B7816083BF94
:102F20007894889583B78E7F83BF0FB6F894A89561
:102F300080916000886180936000109260000FBEF5
:102F400008950E942C060E94AC02089582E084BD80
:102F500093E095BD9AEF97BD80936E0008952FB7CB
:102F6000F8948091BD029091BE02A091BF02B091F1
:102F7000C0022FBF0895A4E0B0E0E1ECF7E10C94AB
:102F8000ED1E8FB7F8942091BD023091BE024091A2
:102F9000BF025091C00229833A834B835C838FBF69
:102FA00069817A818B819C812496E2E00C94091FCF
:102FB0009C014FB7F8948091BD029091BE02A09100
:102FC000BF02B091C0024FBF821B930B089578944B
:102FD0001F921FB61F9211248F939F93AF93BF939D
:102FE0008091BD029091BE02A091BF02B091C0023B
:102FF0000196A11DB11D8093BD029093BE02A093C6
:10300000BF02B093C002BF91AF919F918F911F906B
:103010001FBE1F90189581E08093E00080E28093AE
:10302000D8001092C9008FE19EE40197F1F700C02B
:10303000000087E090EBDC018093CE029093CF02FA
:10304000A093D002B093D10288E19CE00FB6F8942F
:10305000A895809360000FBE90936000FFCF88E139
:103060009CE00FB6F894A895809360000FBE9093F3
:103070006000FFCF8091A1020895282FCB01BA01F3
:103080003091C5023430E1F42F702093E9002FEF26
:103090003091E80035FD07C035ED3A95F1F70000B5
:1030A00021502111F5CF2091E80025FF09C040E013
:1030B00050E00E94411A8091E8008E778093E800EA
:1030C0000895BC0143E050E082E00E943D1808955D
:1030D000BC0146E050E082E00E943D180895BC012A
:1030E00040E250E082E00E943D180895CF93DF93C4
:1030F000D82FC92F48E050E0682F792F81E00E9437
:103100003D1888E0ED2FFC2FA9E9B2E001900D9267
:103110008A95E1F7DF91CF9108958091C4028111E2
:1031200009C00E94C91B0E94261C8091E200846095
:103130008093E20008951092C40208950E9420171F
:1031400008956091C10281E0611101C080E00E9498
:10315000171708959091C50281E0943009F080E03E
:103160006091C1020E941D17089542E061EC81E068
:103170000E94451B42E261EC82E00E94451B909157
:10318000C50281E0943009F080E06091C1020E94A4
:10319000111708958091C702893089F148F482306F
:1031A00009F4A0C0833009F45AC0813041F0089579
:1031B0008A3009F487C08B3009F46CC0089580917F
:1031C000C602813A09F04AC08091E800877F809367
:1031D000E8008091CA029091CB02892B61F060E0F7
:1031E00080E090E070E00E94901A8091E8008B7778
:1031F0008093E800089568E089E992E0F3CF809138
:10320000C602813259F58091CA029091CB02029791
:1032100028F58091E800877F8093E8008091E8009E
:1032200082FF18C09091F3008091F200029731F470
:103230008091F100813011F0863021F48091F1000D
:103240008093A1028091E8008B778093E8000E9430
:10325000791B04C08091C5028111E0CF089580914F
:10326000C602813AD9F78091CA029091CB02892B8C
:10327000A9F78091E800877F8093E8008091E800BB
:1032800080FFFCCF809116018093F1008091E800CF
:103290008E77DBCF8091C602813201F78091CA021E
:1032A0009091CB02892BD1F68091E800877F8093A3
:1032B000E8000E94791B8091C802809316010E9449
:1032C0002C0608958091C602813241F68091E80073
:1032D000877F8093E8000E94791B8091C9028093C8
:1032E000A20208958091C602813A09F0B7CF809179
:1032F000E800877F8093E8008091E80080FFFCCFA2
:103300008091A202C1CF84B7877F84BF0FB6F894A3
:10331000A8958091600088618093600010926000A1
:103320000FBE80E890E00FB6F89480936100909310
:1033300061000FBE0E94261708950E94C91B0E94BB
:10334000261CE2EEF0E080818460808378940E9405
:10335000A91E08958CE091E00E9462150895809165
:10336000C502853031F48091C502853019F00E9484
:10337000A11708950E9476178091C302882399F3BC
:103380000E943317882379F30E942B1A0E942C067F
:10339000EACF08959A014091CC025091CD020E944B
:1033A000D2190895AC01CB01D901252F3327233041
:1033B0003105E1F058F421303105C9F122303105F1
:1033C000D9F180E090E020E030E01EC021323105EC
:1033D00021F122323105A9F7892BC1F16130710544
:1033E00081F786EB90E02FEE31E00EC0CA019927FD
:1033F000413069F08230910569F0EEE9F1E0892B06
:1034000001F7849190E09F012D933C930895EEE79E
:10341000F1E0F7CFE4E5F1E0F4CF892B91F06130F2
:10342000710579F689E090E02DEC31E0EDCF82E195
:1034300090E02DED31E0E8CF8BE390E022EA31E03F
:10344000E3CF89E090E024EB31E0DECF84E490E04C
:1034500025EA32E0D9CF80E189BD82E189BD09B496
:1034600000FEFDCF8091D8008F7D8093D8008091A1
:10347000E00082608093E0008091E00081FDFCCF5D
:103480000895AF92BF92CF92DF92FF920F931F9356
:10349000CF93DF936C01EB018A010E94981BF82EF9
:1034A000811123C00115110539F0F8018081918146
:1034B000C81BD90BC80ED91EA12CB12C2097A9F07E
:1034C0008091E80085FD22C08091E8008E7780938E
:1034D000E80001151105A1F0F801808191818A0DA4
:1034E0009B1D9183808385E0F82E8F2DDF91CF91F6
:1034F0001F910F91FF90DF90CF90BF90AF900895F4
:103500000E94981B8823E1F2F82EEFCFF6018191FB
:103510006F018093F1002197FFEFAF1ABF0ACECF62
:10352000FC019B018091CC029091CD0286179707F8
:1035300018F0672B61F0C90140E0009771F4411168
:103540000CC08091E80082FF35C080E00895809132
:10355000E8008E778093E800EECF2091C502222309
:10356000A9F12530A9F12091E80023FD2DC020917B
:10357000E80022FDE6CF2091E80020FFDECF309169
:10358000F3002091F200009719F02830310558F02F
:1035900041E02830310509F040E02091E8002E7725
:1035A0002093E800CACF41914093F10001972F5F2B
:1035B0003F4FE9CF8091C502882341F0853041F02B
:1035C0008091E80083FFBDCF81E0089582E00895F7
:1035D00083E00895FC019B018091CC029091CD0283
:1035E0008617970718F0672B61F0C90140E0009734
:1035F00071F441110CC08091E80082FF36C080E078
:1036000008958091E8008E778093E800EECF2091B6
:10361000C5022223B1F12530B1F12091E80023FD4C
:103620002EC02091E80022FDE6CF2091E80020FF87
:10363000DECF3091F3002091F200009719F028308E
:10364000310558F041E02830310509F040E0209183
:10365000E8002E772093E800CACF44914093F10010
:10366000319601972F5F3F4FE8CF8091C5028823A5
:1036700041F0853041F08091E80083FFBCCF81E0CC
:10368000089582E0089583E00895982F973028F0F8
:103690008F708093E90081E008959093E900242FD2
:1036A000762F50E0981731F07091EC002091ED00EA
:1036B0005091F00021FD02C09F5FE8CF3091EB00F8
:1036C0003E7F3093EB003091ED003D7F3093ED0075
:1036D0003091EB0031603093EB007093EC0020935D
:1036E000ED005093F0002091EE0027FDE5CF80E043
:1036F00008958091C60287FF13C08091E80082FF81
:1037000006C08091E8008B778093E80004C0809128
:10371000C5028111F2CF08958091C5028823D9F3A3
:103720008091E80080FFF8CF8091E8008E77ECCFA1
:103730002091E4003091E50095E6A9018091EC002C
:103740008170882331F08091E80080FF06C080E01E
:1037500008952091E80022FD1BC08091C5028823B6
:1037600091F0853091F08091EB0085FD10C02091A3
:10377000E4003091E5004217530701F39150911195
:10378000DCCF84E0089582E0089583E0089581E02D
:1037900008950E94381C0E94401CE0EEF0E08081F9
:1037A00081608083E8EDF0E080818F77808319BCB1
:1037B000A7EDB0E08C918E7F8C9380818F7E80838B
:1037C0001092C40208950F931F93CF93DF930E942A
:1037D000381C0E94401CC8EDD0E088818F77888318
:1037E00088818068888388818F7D888319BC109246
:1037F000C5021092C1021092C3021092C20200EEE2
:1038000010E0F80180818B7F8083888181608883CC
:1038100042E060E080E00E94451BE1EEF0E0808144
:103820008E7F8083E2EEF0E0808181608083808102
:1038300088608083F80180818E7F808388818061A9
:103840008883DF91CF911F910F910895E8EDF0E00B
:1038500080818F7E8083E7EDF0E0808181608083CE
:1038600084E082BF81E08093C4020E94E31B08953C
:10387000E8EDF0E080818E7F80831092E200089571
:103880001092DA001092E10008951F920F920FB685
:103890000F9211242F933F934F935F936F937F93D6
:1038A0008F939F93AF93BF93EF93FF938091E1002A
:1038B00082FF0BC08091E20082FF07C08091E1008F
:1038C0008B7F8093E1000E94A81E8091DA0080FF28
:1038D00019C08091D80080FF15C08091DA008E7FDA
:1038E0008093DA008091D90080FF94C080E189BD87
:1038F00082E189BD09B400FEFDCF81E08093C5025D
:103900000E948D188091E10080FF19C08091E20033
:1039100080FF15C08091E2008E7F8093E20080914D
:10392000E20080618093E2008091D8008062809301
:10393000D80019BC85E08093C5020E94A11880912F
:10394000E10084FF29C08091E20084FF25C080E16E
:1039500089BD82E189BD09B400FEFDCF8091D80008
:103960008F7D8093D8008091E1008F7E8093E1006D
:103970008091E2008F7E8093E2008091E20081607E
:103980008093E2008091C102882309F449C084E059
:103990008093C5020E94AA188091E10083FF29C08C
:1039A0008091E20083FF25C08091E100877F8093B2
:1039B000E10082E08093C5021092C1028091E10093
:1039C0008E7F8093E1008091E2008E7F8093E20001
:1039D0008091E20080618093E20042E060E080E05C
:1039E0000E94451B8091F00088608093F0000E9447
:1039F0009E18FF91EF91BF91AF919F918F917F9111
:103A00006F915F914F913F912F910F900FBE0F904B
:103A10001F90189519BC1092C5020E949B1872CF76
:103A20008091E30087FF02C083E0B2CF81E0B0CF96
:103A30001F920F920FB60F921124FF920F931F93B4
:103A40002F933F934F935F936F937F938F939F93A6
:103A5000AF93BF93CF93DF93EF93FF9309EE10E003
:103A6000F8018081C091EC00C795CC27C7958F7075
:103A7000FC2EF82A1082C0EFD0E08881877F8883EF
:103A800078940E94611DF801108288818860888383
:103A9000CF2DCF70C083FF91EF91DF91CF91BF9178
:103AA000AF919F918F917F916F915F914F913F91D6
:103AB0002F911F910F91FF900F900FBE0F901F90AD
:103AC0001895AAE2B0E0E7E6FDE10C94EC1E86EC66
:103AD00092E0FC0101962091F100208322E08E3CCF
:103AE0009207B9F70E94CA188091E80083FF38C096
:103AF0008091C6029091C7029A3090F5E92FF0E0CC
:103B0000E752F04E0C94D71E803889F0823841F588
:103B10008091CA028F70873018F58093E9008091F8
:103B2000EB0085FB882780F91092E90006C08091A0
:103B3000C2029091C302911182609091E800977F38
:103B40009093E8008093F1001092F1008091E800DA
:103B50008E7723C0811116C08091C802813011F187
:103B60008091E80083FF0AC08091E800877F8093FE
:103B7000E8008091EB0080628093EB00AA96E3E07E
:103B80000C94081F823061F78091C802882389F065
:103B90001092E9008091E800877F8093E8000E94FE
:103BA000791BDECF81E0933009F080E08093C3027F
:103BB000EFCF8091CA028F702FEF280F263080F64A
:103BC0008093E9002091EB0020FFE2CF933031F4A5
:103BD0008091EB0080628093EB00DACF9091EB0054
:103BE00090619093EB0021E030E0A90102C0440F06
:103BF000551F8A95E2F74093EA001092EA008091FF
:103C0000EB008860E8CF8111ABCF1091C8021F771D
:103C10008091E3008078812B8093E3008091E8001D
:103C2000877F8093E8000E94791B8091E80080FFE5
:103C3000FCCF8091E30080688093E30083E0111162
:103C400001C082E08093C5028BCF8058823008F09B
:103C500087CF8091C8029091C9028C3D53E09507AF
:103C600099F583E08A838AE289834FB7F894DE016D
:103C7000139620E03EE051E2E32FF0E0509357002E
:103C8000849120FF03C082958F703F5F8F708A30D0
:103C9000C8F0895C90E08D939D932F5F243161F78C
:103CA0004FBF8091E800877F8093E8006AE270E070
:103CB000CE0101960E94901A8091E8008B77809344
:103CC000E8004ECF805DE6CF6091CA027091CB02D2
:103CD000AE014F5F5F4F0E94CA19BC01892B09F4E6
:103CE0003FCF8091E800877F8093E80089819A81A7
:103CF0000E94EA1AE1CF803809F032CF8091E800C3
:103D0000877F8093E8008091C1028093F1001ECFED
:103D1000811126CF9091C802923008F021CF809176
:103D2000E800877F8093E8009093C1020E94791B8E
:103D30008091C102882331F084E08093C5020E9403
:103D4000B5180ECF8091E30087FDF6CF81E0F5CF67
:103D50000895CF938091C502882399F08091E9005E
:103D6000C091EC00C795CC27C7958F70C82B1092D7
:103D7000E9008091E80083FD0E94611DCF70C0932F
:103D8000E900CF91089597FB072E16F4009407D011
:103D900077FD09D00E94141F07FC05D03EF49095D2
:103DA00081959F4F0895709561957F4F0895EE0F0F
:103DB000FF1F0590F491E02D09942F923F924F92AE
:103DC0005F926F927F928F929F92AF92BF92CF92AB
:103DD000DF92EF92FF920F931F93CF93DF93CDB7B4
:103DE000DEB7CA1BDB0B0FB6F894DEBF0FBECDBF2C
:103DF00009942A88398848885F846E847D848C84FD
:103E00009B84AA84B984C884DF80EE80FD800C8105
:103E10001B81AA81B981CE0FD11D0FB6F894DEBFE8
:103E20000FBECDBFED010895AA1BBB1B51E107C01A
:103E3000AA1FBB1FA617B70710F0A61BB70B881F3A
:103E4000991F5A95A9F780959095BC01CD010895C9
:103E5000FB01DC0104C08D910190801921F44150D7
:103E60005040C8F7881B990B0895FB01DC0102C084
:103E700001900D9241505040D8F70895F999FECF26
:103E800092BD81BDF89A992780B50895A8E1B0E068
:103E900042E050E00C94821FDC01A40FB51F41509A
:103EA000504048F0CB01840F951F2E910E945D1F5A
:103EB00041505040D0F70895262FF999FECF92BD7A
:103EC00081BDF89A019700B4021639F01FBA20BDDF
:103ED0000FB6F894FA9AF99A0FBE08950396272F11
:103EE0000E945D1F0E945C1F252F0E945D1F242FD2
:103EF0000C945D1F0196272F0E945D1F0C945C1F80
:103F0000DC01CB01FC01F999FECF06C0F2BDE1BD99
:103F1000F89A319600B40D9241505040B8F7089588
:103F2000F894FFCF1B041B0462046204C704E4047A
:103F30004A044A04E90460057105710598110C12E0
:103F4000A0116A116E11A4117211A811B4117E1181
:103F500005128211B8118611BC11E4118A11C01129
:103F6000EB119011C611CE117611AC117A11B0116E
:103F70009411CA11DA11F411031264119C11131275
:103F8000D212D512DB12F012F012F012F012F0126F
:103F9000F012F012F012DE12E312E712ED12FE122E
:103FA000041308133D1543152D15371549154F15E5
:103FB0005515841DAA1DB01DAA1DB01D031E251E6A
:063FC000B01D7B1E881EEF
:103FC6003C025C02280850011E0A14013A187618B1
:103FD6006F186818611801E200E900EA00B500B63A
:103FE60000B700CD008301CC008A01920194012123
:103FF60002230224022502260227022A02B300B463
:10400600006F0070009F01CB019F02A002E200E951
:1040160000EA00B500B600B700CD008301CC008AE7
:10402600019201940121022302240225022602277D
:10403600022A02B300B4006F0070009F01CB019FFB
:1040460002A0023031323334353637909192939450
:0840560095F0F1F4F5F6F70016
:00000001FF
